:100000000C94B6000C94C0000C94C0000C94C0007A
:100010000C94C0000C94C0000C94C0000C94C00060
:100020000C94C0000C94C0000C94C0000C94C00050
:100030000C94C0000C94C0000C94C0000C94C00040
:100040000C94C0000C94C0000C94C0000C94C00030
:100050000C94C0000C94C0000C94C0000C94C00020
:100060000C94C0000C94C0000C94C0000C94C00010
:100070000C94C0000C94C0000C94C0000C94C00000
:100080000C94C0000C94C0000C94C0000C94C000F0
:100090000C94C0000C94C0000C94C0000C94C000E0
:1000A0000C94C0000C94C0000C94C0000C94C000D0
:1000B0000C94C0000C94C0000C94C0000C94C000C0
:1000C0000C94C0000C94C0000C94C0000C94C000B0
:1000D0000C94C0000C94C0000C94C0000C94C000A0
:1000E0000C94C0000C94C0000C94C0000C94C00090
:1000F0000C94C0000C94C0000C94C0000C94C00080
:100100000C94C0000C94C0000C94C0000C94C0006F
:100110000C94C0000C94C0000C94C0000C94C0005F
:100120000C94C0000C94C0000C94C0000C94C0004F
:100130000C94C0000C94C0000C94C0000C94C0003F
:100140000C94C0000C94C0000C94C0000C94C0002F
:100150000C94C0000C94C0000C94C0000C94C0001F
:100160000C94C0000C94C0000C94C00011241FBE5D
:10017000CFEFCDBFDFE2DEBF0E94C2000C94D10002
:100180000C940000CF93DF9300D000D0CDB7DEB742
:100190008EE591E0A0E0B0E089839A83AB83BC83D5
:0601A000FFCFF894FFCF31
:00000001FF
